{
  "_format": "hh-sol-artifact-1",
  "contractName": "Staking",
  "sourceName": "contracts/Staking.sol",
  "abi": [
    {
      "inputs": [],
      "stateMutability": "payable",
      "type": "constructor"
    },
    {
      "inputs": [
        {
          "internalType": "uint256",
          "name": "_positionId",
          "type": "uint256"
        },
        {
          "internalType": "uint256",
          "name": "_newUnlickDate",
          "type": "uint256"
        }
      ],
      "name": "changeUnlockDate",
      "outputs": [],
      "stateMutability": "nonpayable",
      "type": "function"
    },
    {
      "inputs": [
        {
          "internalType": "uint256",
          "name": "_positionId",
          "type": "uint256"
        }
      ],
      "name": "closePosition",
      "outputs": [],
      "stateMutability": "nonpayable",
      "type": "function"
    },
    {
      "inputs": [],
      "name": "currentPositionId",
      "outputs": [
        {
          "internalType": "uint256",
          "name": "",
          "type": "uint256"
        }
      ],
      "stateMutability": "view",
      "type": "function"
    },
    {
      "inputs": [
        {
          "internalType": "uint256",
          "name": "_numDays",
          "type": "uint256"
        }
      ],
      "name": "getInterestRate",
      "outputs": [
        {
          "internalType": "uint256",
          "name": "",
          "type": "uint256"
        }
      ],
      "stateMutability": "view",
      "type": "function"
    },
    {
      "inputs": [],
      "name": "getLockPeriods",
      "outputs": [
        {
          "internalType": "uint256[]",
          "name": "",
          "type": "uint256[]"
        }
      ],
      "stateMutability": "view",
      "type": "function"
    },
    {
      "inputs": [
        {
          "internalType": "uint256",
          "name": "_positionId",
          "type": "uint256"
        }
      ],
      "name": "getPositionById",
      "outputs": [
        {
          "components": [
            {
              "internalType": "uint256",
              "name": "positionId",
              "type": "uint256"
            },
            {
              "internalType": "address",
              "name": "walletAddress",
              "type": "address"
            },
            {
              "internalType": "uint256",
              "name": "createdDate",
              "type": "uint256"
            },
            {
              "internalType": "uint256",
              "name": "unlockDate",
              "type": "uint256"
            },
            {
              "internalType": "uint256",
              "name": "percentInterest",
              "type": "uint256"
            },
            {
              "internalType": "uint256",
              "name": "weiStaked",
              "type": "uint256"
            },
            {
              "internalType": "uint256",
              "name": "weiInterest",
              "type": "uint256"
            },
            {
              "internalType": "bool",
              "name": "isOpen",
              "type": "bool"
            }
          ],
          "internalType": "struct Staking.Position",
          "name": "",
          "type": "tuple"
        }
      ],
      "stateMutability": "view",
      "type": "function"
    },
    {
      "inputs": [
        {
          "internalType": "address",
          "name": "_walletAddress",
          "type": "address"
        }
      ],
      "name": "getPositionIdsForAddress",
      "outputs": [
        {
          "internalType": "uint256[]",
          "name": "",
          "type": "uint256[]"
        }
      ],
      "stateMutability": "view",
      "type": "function"
    },
    {
      "inputs": [
        {
          "internalType": "uint256",
          "name": "",
          "type": "uint256"
        }
      ],
      "name": "lockPeriods",
      "outputs": [
        {
          "internalType": "uint256",
          "name": "",
          "type": "uint256"
        }
      ],
      "stateMutability": "view",
      "type": "function"
    },
    {
      "inputs": [
        {
          "internalType": "uint256",
          "name": "_numDays",
          "type": "uint256"
        },
        {
          "internalType": "uint256",
          "name": "_basisPoints",
          "type": "uint256"
        }
      ],
      "name": "modifyLockPeriods",
      "outputs": [],
      "stateMutability": "nonpayable",
      "type": "function"
    },
    {
      "inputs": [],
      "name": "owner",
      "outputs": [
        {
          "internalType": "address",
          "name": "",
          "type": "address"
        }
      ],
      "stateMutability": "view",
      "type": "function"
    },
    {
      "inputs": [
        {
          "internalType": "address",
          "name": "",
          "type": "address"
        },
        {
          "internalType": "uint256",
          "name": "",
          "type": "uint256"
        }
      ],
      "name": "positionIdsByAddress",
      "outputs": [
        {
          "internalType": "uint256",
          "name": "",
          "type": "uint256"
        }
      ],
      "stateMutability": "view",
      "type": "function"
    },
    {
      "inputs": [
        {
          "internalType": "uint256",
          "name": "",
          "type": "uint256"
        }
      ],
      "name": "positions",
      "outputs": [
        {
          "internalType": "uint256",
          "name": "positionId",
          "type": "uint256"
        },
        {
          "internalType": "address",
          "name": "walletAddress",
          "type": "address"
        },
        {
          "internalType": "uint256",
          "name": "createdDate",
          "type": "uint256"
        },
        {
          "internalType": "uint256",
          "name": "unlockDate",
          "type": "uint256"
        },
        {
          "internalType": "uint256",
          "name": "percentInterest",
          "type": "uint256"
        },
        {
          "internalType": "uint256",
          "name": "weiStaked",
          "type": "uint256"
        },
        {
          "internalType": "uint256",
          "name": "weiInterest",
          "type": "uint256"
        },
        {
          "internalType": "bool",
          "name": "isOpen",
          "type": "bool"
        }
      ],
      "stateMutability": "view",
      "type": "function"
    },
    {
      "inputs": [
        {
          "internalType": "uint256",
          "name": "_numDays",
          "type": "uint256"
        }
      ],
      "name": "stakeEther",
      "outputs": [],
      "stateMutability": "payable",
      "type": "function"
    },
    {
      "inputs": [
        {
          "internalType": "uint256",
          "name": "",
          "type": "uint256"
        }
      ],
      "name": "tiers",
      "outputs": [
        {
          "internalType": "uint256",
          "name": "",
          "type": "uint256"
        }
      ],
      "stateMutability": "view",
      "type": "function"
    }
  ],
  "bytecode": "0x608060405233600860006101000a81548173ffffffffffffffffffffffffffffffffffffffff021916908373ffffffffffffffffffffffffffffffffffffffff16021790555060006009819055506102bc600d6000601e8152602001908152602001600020819055506103e8600d6000605a8152602001908152602001600020819055506104b0600d600060b4815260200190815260200160002081905550600a601e9080600181540180825580915050600190039060005260206000200160009091909190915055600a605a9080600181540180825580915050600190039060005260206000200160009091909190915055600a60b490806001815401808255809150506001900390600052602060002001600090919091909150556114f68061012b6000396000f3fe6080604052600436106100dd5760003560e01c80638da5cb5b1161007f578063b0f0475b11610059578063b0f0475b14610301578063b838ec861461032a578063c7c9d05514610367578063e4f9084114610390576100dd565b80638da5cb5b1461026957806399fbab8814610294578063a126d601146102d8576100dd565b806340d98a44116100bb57806340d98a441461018757806341ee13be146101c457806345eae373146101ef5780634c8f2a781461022c576100dd565b8063039af9eb146100e25780630c196a741461011f5780631131c8cd1461015c575b600080fd5b3480156100ee57600080fd5b5061010960048036038101906101049190610df2565b6103ac565b604051610116919061121d565b60405180910390f35b34801561012b57600080fd5b5061014660048036038101906101419190610df2565b6103c4565b604051610153919061121d565b60405180910390f35b34801561016857600080fd5b506101716103e1565b60405161017e919061121d565b60405180910390f35b34801561019357600080fd5b506101ae60048036038101906101a99190610d8d565b6103e7565b6040516101bb919061115f565b60405180910390f35b3480156101d057600080fd5b506101d961047e565b6040516101e6919061115f565b60405180910390f35b3480156101fb57600080fd5b5061021660048036038101906102119190610db6565b6104d6565b604051610223919061121d565b60405180910390f35b34801561023857600080fd5b50610253600480360381019061024e9190610df2565b610507565b604051610260919061121d565b60405180910390f35b34801561027557600080fd5b5061027e61052b565b60405161028b9190611144565b60405180910390f35b3480156102a057600080fd5b506102bb60048036038101906102b69190610df2565b610551565b6040516102cf989796959493929190611238565b60405180910390f35b3480156102e457600080fd5b506102ff60048036038101906102fa9190610df2565b6105c6565b005b34801561030d57600080fd5b5061032860048036038101906103239190610e1b565b61084f565b005b34801561033657600080fd5b50610351600480360381019061034c9190610df2565b610924565b60405161035e9190611201565b60405180910390f35b34801561037357600080fd5b5061038e60048036038101906103899190610e1b565b6109ff565b005b6103aa60048036038101906103a59190610df2565b610aae565b005b600d6020528060005260406000206000915090505481565b6000600d6000838152602001908152602001600020549050919050565b60095481565b6060600c60008373ffffffffffffffffffffffffffffffffffffffff1673ffffffffffffffffffffffffffffffffffffffff16815260200190815260200160002080548060200260200160405190810160405280929190818152602001828054801561047257602002820191906000526020600020905b81548152602001906001019080831161045e575b50505050509050919050565b6060600a8054806020026020016040519081016040528092919081815260200182805480156104cc57602002820191906000526020600020905b8154815260200190600101908083116104b8575b5050505050905090565b600c60205281600052604060002081815481106104f257600080fd5b90600052602060002001600091509150505481565b600a818154811061051757600080fd5b906000526020600020016000915090505481565b600860009054906101000a900473ffffffffffffffffffffffffffffffffffffffff1681565b600b6020528060005260406000206000915090508060000154908060010160009054906101000a900473ffffffffffffffffffffffffffffffffffffffff16908060020154908060030154908060040154908060050154908060060154908060070160009054906101000a900460ff16905088565b3373ffffffffffffffffffffffffffffffffffffffff16600b600083815260200190815260200160002060010160009054906101000a900473ffffffffffffffffffffffffffffffffffffffff1673ffffffffffffffffffffffffffffffffffffffff161461066a576040517f08c379a0000000000000000000000000000000000000000000000000000000008152600401610661906111e1565b60405180910390fd5b60011515600b600083815260200190815260200160002060070160009054906101000a900460ff161515146106d4576040517f08c379a00000000000000000000000000000000000000000000000000000000081526004016106cb906111c1565b60405180910390fd5b6000600b600083815260200190815260200160002060070160006101000a81548160ff021916908315150217905550600b6000828152602001908152602001600020600301544211156107cc576000600b600083815260200190815260200160002060060154600b60008481526020019081526020016000206005015461075b919061130b565b90503373ffffffffffffffffffffffffffffffffffffffff16816040516107819061112f565b60006040518083038185875af1925050503d80600081146107be576040519150601f19603f3d011682016040523d82523d6000602084013e6107c3565b606091505b5050505061084c565b3373ffffffffffffffffffffffffffffffffffffffff16600b6000838152602001908152602001600020600501546040516108069061112f565b60006040518083038185875af1925050503d8060008114610843576040519150601f19603f3d011682016040523d82523d6000602084013e610848565b606091505b5050505b50565b3373ffffffffffffffffffffffffffffffffffffffff16600860009054906101000a900473ffffffffffffffffffffffffffffffffffffffff1673ffffffffffffffffffffffffffffffffffffffff16146108df576040517f08c379a00000000000000000000000000000000000000000000000000000000081526004016108d690611181565b60405180910390fd5b80600d600084815260200190815260200160002081905550600a8290806001815401808255809150506001900390600052602060002001600090919091909150555050565b61092c610d06565b600b600083815260200190815260200160002060405180610100016040529081600082015481526020016001820160009054906101000a900473ffffffffffffffffffffffffffffffffffffffff1673ffffffffffffffffffffffffffffffffffffffff1673ffffffffffffffffffffffffffffffffffffffff16815260200160028201548152602001600382015481526020016004820154815260200160058201548152602001600682015481526020016007820160009054906101000a900460ff1615151515815250509050919050565b3373ffffffffffffffffffffffffffffffffffffffff16600860009054906101000a900473ffffffffffffffffffffffffffffffffffffffff1673ffffffffffffffffffffffffffffffffffffffff1614610a8f576040517f08c379a0000000000000000000000000000000000000000000000000000000008152600401610a8690611181565b60405180910390fd5b80600b6000848152602001908152602001600020600301819055505050565b6000600d60008381526020019081526020016000205411610b04576040517f08c379a0000000000000000000000000000000000000000000000000000000008152600401610afb906111a1565b60405180910390fd5b60405180610100016040528060095481526020013373ffffffffffffffffffffffffffffffffffffffff1681526020014281526020016201518083610b499190611392565b42610b54919061130b565b8152602001600d6000848152602001908152602001600020548152602001348152602001610b96600d6000858152602001908152602001600020548434610ce2565b815260200160011515815250600b600060095481526020019081526020016000206000820151816000015560208201518160010160006101000a81548173ffffffffffffffffffffffffffffffffffffffff021916908373ffffffffffffffffffffffffffffffffffffffff16021790555060408201518160020155606082015181600301556080820151816004015560a0820151816005015560c0820151816006015560e08201518160070160006101000a81548160ff021916908315150217905550905050600c60003373ffffffffffffffffffffffffffffffffffffffff1673ffffffffffffffffffffffffffffffffffffffff1681526020019081526020016000206009549080600181540180825580915050600190039060005260206000200160009091909190915055600160096000828254610cd8919061130b565b9250508190555050565b60006127108285610cf39190611392565b610cfd9190611361565b90509392505050565b60405180610100016040528060008152602001600073ffffffffffffffffffffffffffffffffffffffff16815260200160008152602001600081526020016000815260200160008152602001600081526020016000151581525090565b600081359050610d7281611492565b92915050565b600081359050610d87816114a9565b92915050565b600060208284031215610d9f57600080fd5b6000610dad84828501610d63565b91505092915050565b60008060408385031215610dc957600080fd5b6000610dd785828601610d63565b9250506020610de885828601610d78565b9150509250929050565b600060208284031215610e0457600080fd5b6000610e1284828501610d78565b91505092915050565b60008060408385031215610e2e57600080fd5b6000610e3c85828601610d78565b9250506020610e4d85828601610d78565b9150509250929050565b6000610e638383611111565b60208301905092915050565b610e78816113ec565b82525050565b610e87816113ec565b82525050565b6000610e98826112c6565b610ea281856112de565b9350610ead836112b6565b8060005b83811015610ede578151610ec58882610e57565b9750610ed0836112d1565b925050600181019050610eb1565b5085935050505092915050565b610ef4816113fe565b82525050565b610f03816113fe565b82525050565b6000610f166025836112fa565b91507f4f6e6c7920746865206f776e6572206d61792063616c6c20746869732066756e60008301527f6374696f6e0000000000000000000000000000000000000000000000000000006020830152604082019050919050565b6000610f7c6011836112fa565b91507f4d617070696e67206e6f7420666f756e640000000000000000000000000000006000830152602082019050919050565b6000610fbc6017836112fa565b91507f5468697320706f736974696f6e20697320636c6f7365640000000000000000006000830152602082019050919050565b6000610ffc6032836112fa565b91507f4f6e6c792074686520706f736974696f6e2063726561746f72206d6179206d6f60008301527f64696679207468697320706f736974696f6e00000000000000000000000000006020830152604082019050919050565b60006110626000836112ef565b9150600082019050919050565b610100820160008201516110866000850182611111565b5060208201516110996020850182610e6f565b5060408201516110ac6040850182611111565b5060608201516110bf6060850182611111565b5060808201516110d26080850182611111565b5060a08201516110e560a0850182611111565b5060c08201516110f860c0850182611111565b5060e082015161110b60e0850182610eeb565b50505050565b61111a8161142a565b82525050565b6111298161142a565b82525050565b600061113a82611055565b9150819050919050565b60006020820190506111596000830184610e7e565b92915050565b600060208201905081810360008301526111798184610e8d565b905092915050565b6000602082019050818103600083015261119a81610f09565b9050919050565b600060208201905081810360008301526111ba81610f6f565b9050919050565b600060208201905081810360008301526111da81610faf565b9050919050565b600060208201905081810360008301526111fa81610fef565b9050919050565b600061010082019050611217600083018461106f565b92915050565b60006020820190506112326000830184611120565b92915050565b60006101008201905061124e600083018b611120565b61125b602083018a610e7e565b6112686040830189611120565b6112756060830188611120565b6112826080830187611120565b61128f60a0830186611120565b61129c60c0830185611120565b6112a960e0830184610efa565b9998505050505050505050565b6000819050602082019050919050565b600081519050919050565b6000602082019050919050565b600082825260208201905092915050565b600081905092915050565b600082825260208201905092915050565b60006113168261142a565b91506113218361142a565b9250827fffffffffffffffffffffffffffffffffffffffffffffffffffffffffffffffff0382111561135657611355611434565b5b828201905092915050565b600061136c8261142a565b91506113778361142a565b92508261138757611386611463565b5b828204905092915050565b600061139d8261142a565b91506113a88361142a565b9250817fffffffffffffffffffffffffffffffffffffffffffffffffffffffffffffffff04831182151516156113e1576113e0611434565b5b828202905092915050565b60006113f78261140a565b9050919050565b60008115159050919050565b600073ffffffffffffffffffffffffffffffffffffffff82169050919050565b6000819050919050565b7f4e487b7100000000000000000000000000000000000000000000000000000000600052601160045260246000fd5b7f4e487b7100000000000000000000000000000000000000000000000000000000600052601260045260246000fd5b61149b816113ec565b81146114a657600080fd5b50565b6114b28161142a565b81146114bd57600080fd5b5056fea26469706673582212207b49ae84e93d3988c681660405ef2f4ae1cfa7a1e78c6d45cd5278b4d30a17e664736f6c63430008000033",
  "linkReferences": {},
  "deployedLinkReferences": {}
}